:020000040000FA
:100000000C9461000C9473000C9473000C947300B6
:100010000C9473000C9473000C9473000C94730094
:100020000C9473000C9473000C9473000C94730084
:100030000C9473000C9473000C9473000C94730074
:100040000C9460010C9473000C9473000C94730076
:100050000C9473000C9473000C9473000C94730054
:100060000C9473000C94730000000000240027001F
:100070002A0000000000250028002B0000000000DE
:1000800023002600290004040404040404040202DA
:100090000202020203030303030301020408102007
:1000A0004080010204081020010204081020000012
:1000B0000008000201000003040700000000000027
:1000C000000011241FBECFEFD8E0DEBFCDBF21E07E
:1000D000A0E0B1E001C01D92AF30B207E1F70E948D
:1000E000AA010C94E3020C940000833081F028F400
:1000F000813099F08230A9F008958730A9F08830D6
:10010000C9F08430B1F4809180008F7D03C080916C
:1001100080008F7780938000089584B58F7784BDA9
:10012000089584B58F7DFBCF8091B0008F77809349
:10013000B00008958091B0008F7DF9CFCF93DF9309
:10014000282F30E0F901E255FF4F8491F901E6567E
:10015000FF4FD491F901EA57FF4FC491CC23A1F08E
:1001600081110E947500EC2FF0E0EE0FFF1FE458A4
:10017000FF4FA591B491EC91ED2381E090E009F45B
:1001800080E0DF91CF91089580E090E0FACF1F9357
:10019000CF93DF93282F30E0F901E255FF4F849190
:1001A000F901E656FF4FD491F901EA57FF4FC49188
:1001B000CC23A9F0162F81110E947500EC2FF0E0DE
:1001C000EE0FFF1FEE58FF4FA591B4918FB7F89433
:1001D000EC91111108C0D095DE23DC938FBFDF9125
:1001E000CF911F910895DE2BF8CFCF93DF9390E04E
:1001F000FC01E656FF4F24918A579F4FFC018491E2
:100200008823D1F090E0880F991FFC01E859FF4F37
:10021000A591B491FC01EE58FF4FC591D4916111A5
:100220000EC09FB7F8948C91E22FE0958E238C93AB
:100230002881E223E8839FBFDF91CF9108958FB794
:10024000F894EC91E22BEC938FBFF6CF3FB7F89484
:1002500080910B0190910C01A0910D01B0910E01C4
:1002600026B5A89B05C02F3F19F00196A11DB11D11
:100270003FBFBA2FA92F982F8827BC01CD01620F4D
:10028000711D811D911D42E0660F771F881F991F08
:100290004A95D1F7089560E085E00E94C70060E0CC
:1002A00083E00E94C70060E088E00E94C70060E031
:1002B00083E00E94C7001092050110920401089586
:1002C0001F920F920FB60F9211242F933F938F938B
:1002D0009F93AF93BF938091070190910801A091E4
:1002E0000901B0910A013091060123E0230F2D3757
:1002F00058F50196A11DB11D2093060180930701B9
:1003000090930801A0930901B0930A0180910B0119
:1003100090910C01A0910D01B0910E010196A11DCB
:10032000B11D80930B0190930C01A0930D01B0932C
:100330000E01BF91AF919F918F913F912F910F909F
:100340000FBE0F901F90189526E8230F0296A11D4F
:10035000B11DD2CF789484B5826084BD84B58160AC
:1003600084BD85B5826085BD85B5816085BD809180
:100370006E00816080936E001092810080918100F8
:1003800082608093810080918100816080938100F0
:10039000809180008160809380008091B1008460B2
:1003A0008093B1008091B00081608093B000809113
:1003B0007A00846080937A0080917A0082608093D2
:1003C0007A0080917A00816080937A0080917A002F
:1003D000806880937A001092C10060E082E00E9401
:1003E000F50061E083E00E94F50061E083E00E9497
:1003F000F50061E088E00E94F50061E085E00E9480
:10040000F5000E944B01C0E0D0E001E010E093E075
:10041000E92EF12C80910401909105018130910524
:1004200009F452C098F18230910509F48AC003970B
:1004300009F491C061E085E00E94C7000E94260196
:100440002B013C0184EF882E99249394A12CB12C8C
:100450000E9426016419750986099709683E734050
:1004600081059105A8F321E0821A9108A108B1083D
:1004700088EE480E83E0581E611C711C81149104A3
:10048000A104B10429F70E944B0152C082E00E94EE
:100490009E00892B09F44CC01093050100930401C0
:1004A0002FB7F8948091070190910801A09109015C
:1004B000B0910A012FBF8093000190930101A09396
:1004C0000201B093030134C02FB7F8948091070163
:1004D00090910801A0910901B0910A012FBF4091AC
:1004E0000001509101016091020170910301841B90
:1004F000950BA60BB70B8997A105B105C8F082E053
:100500000E949E00892BD1F083E00E949E0061E052
:10051000892B09F060E083E00E94C70061E083E07E
:100520000E94C70082E090E090930501809304014F
:10053000209709F46FCF0E9400006CCF90E080E01C
:10054000F3CF82E00E949E00892B91F7F092050183
:10055000E0920401A5CF2FB7F89480910701909104
:100560000801A0910901B0910A012FBF409100013B
:10057000509101016091020170910301841B950B60
:10058000A60BB70B8997A105B10590F282E00E94F6
:100590009E00892BA9F488E00E949E0061E0892BCF
:1005A00009F060E088E00E94C70060E083E00E94FC
:1005B000C70090E080E090930501809304013ACF5A
:0A05C00082E090E0F8CFF894FFCF3E
:107E0000112484B714BE81FFF0D085E080938100F7
:107E100082E08093C00088E18093C10086E0809377
:107E2000C20080E18093C4008EE0C9D0259A86E02C
:107E300020E33CEF91E0309385002093840096BBD3
:107E4000B09BFECF1D9AA8958150A9F7CC24DD24C4
:107E500088248394B5E0AB2EA1E19A2EF3E0BF2EE7
:107E6000A2D0813461F49FD0082FAFD0023811F036
:107E7000013811F484E001C083E08DD089C08234E0
:107E800011F484E103C0853419F485E0A6D080C0E4
:107E9000853579F488D0E82EFF2485D0082F10E0AE
:107EA000102F00270E291F29000F111F8ED06801E7
:107EB0006FC0863521F484E090D080E0DECF843638
:107EC00009F040C070D06FD0082F6DD080E0C81688
:107ED00080E7D80618F4F601B7BEE895C0E0D1E017
:107EE00062D089930C17E1F7F0E0CF16F0E7DF06D8
:107EF00018F0F601B7BEE89568D007B600FCFDCFD4
:107F0000A601A0E0B1E02C9130E011968C91119780
:107F100090E0982F8827822B932B1296FA010C0160
:107F200087BEE89511244E5F5F4FF1E0A038BF0790
:107F300051F7F601A7BEE89507B600FCFDCF97BE46
:107F4000E89526C08437B1F42ED02DD0F82E2BD052
:107F50003CD0F601EF2C8F010F5F1F4F84911BD097
:107F6000EA94F801C1F70894C11CD11CFA94CF0C13
:107F7000D11C0EC0853739F428D08EE10CD085E9AC
:107F80000AD08FE07ACF813511F488E018D01DD067
:107F900080E101D065CF982F8091C00085FFFCCF94
:107FA0009093C60008958091C00087FFFCCF809118
:107FB000C00084FD01C0A8958091C6000895E0E648
:107FC000F0E098E1908380830895EDDF803219F02E
:107FD00088E0F5DFFFCF84E1DECF1F93182FE3DFCA
:107FE0001150E9F7F2DF1F91089580E0E8DFEE27F6
:047FF000FF270994CA
:027FFE00040479
:00000001FF
